{
  "contractName": "farmInformation",
  "abi": [
    {
      "inputs": [
        {
          "name": "_greeting",
          "type": "string"
        }
      ],
      "payable": false,
      "stateMutability": "nonpayable",
      "type": "constructor"
    },
    {
      "constant": true,
      "inputs": [],
      "name": "greet",
      "outputs": [
        {
          "name": "",
          "type": "string"
        }
      ],
      "payable": false,
      "stateMutability": "view",
      "type": "function"
    },
    {
      "constant": true,
      "inputs": [],
      "name": "getBlockNumber",
      "outputs": [
        {
          "name": "",
          "type": "uint256"
        }
      ],
      "payable": false,
      "stateMutability": "view",
      "type": "function"
    },
    {
      "constant": true,
      "inputs": [
        {
          "name": "_newgreeting",
          "type": "string"
        }
      ],
      "name": "setGreeting",
      "outputs": [
        {
          "name": "",
          "type": "string"
        }
      ],
      "payable": false,
      "stateMutability": "view",
      "type": "function"
    }
  ],
  "bytecode": "0x608060405234801561001057600080fd5b506040516109d63803806109d683398101806040528101908080518201929190505050336000806101000a81548173ffffffffffffffffffffffffffffffffffffffff021916908373ffffffffffffffffffffffffffffffffffffffff1602179055508060019080519060200190610089929190610090565b5050610135565b828054600181600116156101000203166002900490600052602060002090601f016020900481019282601f106100d157805160ff19168380011785556100ff565b828001600101855582156100ff579182015b828111156100fe5782518255916020019190600101906100e3565b5b50905061010c9190610110565b5090565b61013291905b8082111561012e576000816000905550600101610116565b5090565b90565b610892806101446000396000f300608060405260043610610057576000357c0100000000000000000000000000000000000000000000000000000000900463ffffffff16806342cbb15c1461005c578063a413686214610087578063cfae321714610169575b600080fd5b34801561006857600080fd5b506100716101f9565b6040518082815260200191505060405180910390f35b34801561009357600080fd5b506100ee600480360381019080803590602001908201803590602001908080601f0160208091040260200160405190810160405280939291908181526020018383808284378201915050505050509192919290505050610201565b6040518080602001828103825283818151815260200191508051906020019080838360005b8381101561012e578082015181840152602081019050610113565b50505050905090810190601f16801561015b5780820380516001836020036101000a031916815260200191505b509250505060405180910390f35b34801561017557600080fd5b5061017e6103cb565b6040518080602001828103825283818151815260200191508051906020019080838360005b838110156101be5780820151818401526020810190506101a3565b50505050905090810190601f1680156101eb5780820380516001836020036101000a031916815260200191505b509250505060405180910390f35b600043905090565b606061031360018054600181600116156101000203166002900480601f01602080910402602001604051908101604052809291908181526020018280546001816001161561010002031660029004801561029c5780601f106102715761010080835404028352916020019161029c565b820191906000526020600020905b81548152906001019060200180831161027f57829003601f168201915b50505050506040805190810160405280600181526020017f2000000000000000000000000000000000000000000000000000000000000000815250846040805190810160405280600181526020017f200000000000000000000000000000000000000000000000000000000000000081525061046d565b600190805190602001906103289291906107c1565b5060018054600181600116156101000203166002900480601f0160208091040260200160405190810160405280929190818152602001828054600181600116156101000203166002900480156103bf5780601f10610394576101008083540402835291602001916103bf565b820191906000526020600020905b8154815290600101906020018083116103a257829003601f168201915b50505050509050919050565b606060018054600181600116156101000203166002900480601f0160208091040260200160405190810160405280929190818152602001828054600181600116156101000203166002900480156104635780601f1061043857610100808354040283529160200191610463565b820191906000526020600020905b81548152906001019060200180831161044657829003601f168201915b5050505050905090565b60608060608060608060606000808c97508b96508a95508994508451865188518a510101016040519080825280601f01601f1916602001820160405280156104c45781602001602082028038833980820191505090505b50935083925060009150600090505b87518110156105865787818151811015156104ea57fe5b9060200101517f010000000000000000000000000000000000000000000000000000000000000090047f010000000000000000000000000000000000000000000000000000000000000002838380600101945081518110151561054957fe5b9060200101907effffffffffffffffffffffffffffffffffffffffffffffffffffffffffffff1916908160001a90535080806001019150506104d3565b600090505b865181101561063e5786818151811015156105a257fe5b9060200101517f010000000000000000000000000000000000000000000000000000000000000090047f010000000000000000000000000000000000000000000000000000000000000002838380600101945081518110151561060157fe5b9060200101907effffffffffffffffffffffffffffffffffffffffffffffffffffffffffffff1916908160001a905350808060010191505061058b565b600090505b85518110156106f657858181518110151561065a57fe5b9060200101517f010000000000000000000000000000000000000000000000000000000000000090047f01000000000000000000000000000000000000000000000000000000000000000283838060010194508151811015156106b957fe5b9060200101907effffffffffffffffffffffffffffffffffffffffffffffffffffffffffffff1916908160001a9053508080600101915050610643565b600090505b84518110156107ae57848181518110151561071257fe5b9060200101517f010000000000000000000000000000000000000000000000000000000000000090047f010000000000000000000000000000000000000000000000000000000000000002838380600101945081518110151561077157fe5b9060200101907effffffffffffffffffffffffffffffffffffffffffffffffffffffffffffff1916908160001a90535080806001019150506106fb565b8298505050505050505050949350505050565b828054600181600116156101000203166002900490600052602060002090601f016020900481019282601f1061080257805160ff1916838001178555610830565b82800160010185558215610830579182015b8281111561082f578251825591602001919060010190610814565b5b50905061083d9190610841565b5090565b61086391905b8082111561085f576000816000905550600101610847565b5090565b905600a165627a7a72305820d1971e45aa00a2b05abaa8312f438dc089d50dd7149ff985c0830f0926816be00029",
  "source": "pragma solidity ^0.4.18;\ncontract farmInformation         // The contract definition. A constructor of the same name will be automatically called on contract creation. \n{\n    address creator;     // At first, an empty \"address\"-type variable of the name \"creator\". Will be set in the constructor.\n    string greetingString ;     // At first, an empty \"string\"-type variable of the name \"greeting\". Will be set in constructor and can be changed.\n\n    constructor(string _greeting) public   // The constructor. It accepts a string input and saves it to the contract's \"greeting\" variable.\n    {\n        creator = msg.sender;\n        greetingString = _greeting;\n    }\n\n    function greet() constant returns (string)          \n    {\n        return greetingString;\n    }\n    \n    function getBlockNumber() constant returns (uint) // this doesn't have anything to do with the act of greeting\n    {\t\t\t\t\t\t\t\t\t\t\t\t\t// just demonstrating return of some global variable - can be used to track products as QR code.\n        return block.number;\n    }\n    \n    function setGreeting(string _newgreeting) constant returns (string)\n    {\n        greetingString = strConcat(greetingString,' ', _newgreeting, ' ');\n        return greetingString;\n    }\n    function strConcat(string _a, string _b, string _c, string _d) internal returns (string){\n    bytes memory _ba = bytes(_a);\n    bytes memory _bb = bytes(_b);\n    bytes memory _bc = bytes(_c);\n    bytes memory _bd = bytes(_d);\n    string memory abcde = new string(_ba.length + _bb.length + _bc.length + _bd.length);\n    bytes memory babcde = bytes(abcde);\n    uint k = 0;\n    for (uint i = 0; i < _ba.length; i++) babcde[k++] = _ba[i];\n    for (i = 0; i < _bb.length; i++) babcde[k++] = _bb[i];\n    for (i = 0; i < _bc.length; i++) babcde[k++] = _bc[i];\n    for (i = 0; i < _bd.length; i++) babcde[k++] = _bd[i];\n    return string(babcde);\n}\n}",
  "sourcePath": "/Users/lucaspereiradacunha/Documents/farm_to_table/contracts/farmInformation.sol",
  "compiler": {
    "name": "solc",
    "version": "0.4.24+commit.e67f0147.Emscripten.clang"
  },
  "schemaVersion": "2.0.1",
  "updatedAt": "2018-07-15T03:27:34.502Z"
}