{
  "contractName": "farmInformation",
  "abi": [
    {
      "inputs": [
        {
          "name": "_greeting",
          "type": "string"
        }
      ],
      "payable": false,
      "stateMutability": "nonpayable",
      "type": "constructor"
    },
    {
      "constant": true,
      "inputs": [],
      "name": "greet",
      "outputs": [
        {
          "name": "",
          "type": "string"
        }
      ],
      "payable": false,
      "stateMutability": "view",
      "type": "function"
    },
    {
      "constant": true,
      "inputs": [],
      "name": "getBlockNumber",
      "outputs": [
        {
          "name": "",
          "type": "uint256"
        }
      ],
      "payable": false,
      "stateMutability": "view",
      "type": "function"
    },
    {
      "constant": false,
      "inputs": [
        {
          "name": "_newgreeting",
          "type": "string"
        }
      ],
      "name": "setGreeting",
      "outputs": [],
      "payable": false,
      "stateMutability": "nonpayable",
      "type": "function"
    }
  ],
  "bytecode": "0x608060405234801561001057600080fd5b5060405161045938038061045983398101806040528101908080518201929190505050336000806101000a81548173ffffffffffffffffffffffffffffffffffffffff021916908373ffffffffffffffffffffffffffffffffffffffff1602179055508060019080519060200190610089929190610090565b5050610135565b828054600181600116156101000203166002900490600052602060002090601f016020900481019282601f106100d157805160ff19168380011785556100ff565b828001600101855582156100ff579182015b828111156100fe5782518255916020019190600101906100e3565b5b50905061010c9190610110565b5090565b61013291905b8082111561012e576000816000905550600101610116565b5090565b90565b610315806101446000396000f300608060405260043610610057576000357c0100000000000000000000000000000000000000000000000000000000900463ffffffff16806342cbb15c1461005c578063a413686214610087578063cfae3217146100f0575b600080fd5b34801561006857600080fd5b50610071610180565b6040518082815260200191505060405180910390f35b34801561009357600080fd5b506100ee600480360381019080803590602001908201803590602001908080601f0160208091040260200160405190810160405280939291908181526020018383808284378201915050505050509192919290505050610188565b005b3480156100fc57600080fd5b506101056101a2565b6040518080602001828103825283818151815260200191508051906020019080838360005b8381101561014557808201518184015260208101905061012a565b50505050905090810190601f1680156101725780820380516001836020036101000a031916815260200191505b509250505060405180910390f35b600043905090565b806001908051906020019061019e929190610244565b5050565b606060018054600181600116156101000203166002900480601f01602080910402602001604051908101604052809291908181526020018280546001816001161561010002031660029004801561023a5780601f1061020f5761010080835404028352916020019161023a565b820191906000526020600020905b81548152906001019060200180831161021d57829003601f168201915b5050505050905090565b828054600181600116156101000203166002900490600052602060002090601f016020900481019282601f1061028557805160ff19168380011785556102b3565b828001600101855582156102b3579182015b828111156102b2578251825591602001919060010190610297565b5b5090506102c091906102c4565b5090565b6102e691905b808211156102e25760008160009055506001016102ca565b5090565b905600a165627a7a72305820a1a2f347676cc6b7e00b07fb79bf5b28674c17873fe75ec137d9d244291775d90029",
  "source": "pragma solidity ^0.4.18;\n// We have to specify what version of compiler this code will compile with\ncontract farmInformation         // The contract definition. A constructor of the same name will be automatically called on contract creation. \n{\n    address creator;     // At first, an empty \"address\"-type variable of the name \"creator\". Will be set in the constructor.\n    string greeting;     // At first, an empty \"string\"-type variable of the name \"greeting\". Will be set in constructor and can be changed.\n\n    function farmInformation(string _greeting) public   // The constructor. It accepts a string input and saves it to the contract's \"greeting\" variable.\n    {\n        creator = msg.sender;\n        greeting = _greeting;\n    }\n\n    function greet() constant returns (string)          \n    {\n        return greeting;\n    }\n    \n    function getBlockNumber() constant returns (uint) // this doesn't have anything to do with the act of greeting\n    {\t\t\t\t\t\t\t\t\t\t\t\t\t// just demonstrating return of some global variable - can be used to track products as QR code.\n        return block.number;\n    }\n    \n    function setGreeting(string _newgreeting) \n    {\n        greeting = _newgreeting;\n    }\n}",
  "sourcePath": "/Users/lucaspereiradacunha/Documents/farm_to_table/contracts/farmInformation.sol",
  "compiler": {
    "name": "solc",
    "version": "0.4.24+commit.e67f0147.Emscripten.clang"
  },
  "schemaVersion": "2.0.1",
  "updatedAt": "2018-07-14T21:43:03.043Z"
}