{
  "contractName": "farmInformation",
  "abi": [
    {
      "constant": true,
      "inputs": [],
      "name": "owner",
      "outputs": [
        {
          "name": "",
          "type": "address"
        }
      ],
      "payable": false,
      "stateMutability": "view",
      "type": "function"
    },
    {
      "inputs": [
        {
          "name": "_greeting",
          "type": "string"
        }
      ],
      "payable": false,
      "stateMutability": "nonpayable",
      "type": "constructor"
    },
    {
      "constant": false,
      "inputs": [],
      "name": "greet",
      "outputs": [
        {
          "name": "",
          "type": "string"
        }
      ],
      "payable": false,
      "stateMutability": "nonpayable",
      "type": "function"
    },
    {
      "constant": false,
      "inputs": [],
      "name": "getBlockNumber",
      "outputs": [
        {
          "name": "",
          "type": "uint256"
        }
      ],
      "payable": false,
      "stateMutability": "nonpayable",
      "type": "function"
    },
    {
      "constant": false,
      "inputs": [],
      "name": "getRatingCount",
      "outputs": [
        {
          "name": "",
          "type": "uint256"
        }
      ],
      "payable": false,
      "stateMutability": "nonpayable",
      "type": "function"
    },
    {
      "constant": false,
      "inputs": [],
      "name": "getTotalRating",
      "outputs": [
        {
          "name": "",
          "type": "uint256"
        }
      ],
      "payable": false,
      "stateMutability": "nonpayable",
      "type": "function"
    },
    {
      "constant": false,
      "inputs": [
        {
          "name": "rating",
          "type": "uint256"
        }
      ],
      "name": "setTotalRating",
      "outputs": [],
      "payable": false,
      "stateMutability": "nonpayable",
      "type": "function"
    },
    {
      "constant": false,
      "inputs": [
        {
          "name": "_newgreeting",
          "type": "string"
        }
      ],
      "name": "setGreeting",
      "outputs": [],
      "payable": false,
      "stateMutability": "nonpayable",
      "type": "function"
    }
  ],
  "bytecode": "0x608060405234801561001057600080fd5b50604051610acb380380610acb83398101806040528101908080518201929190505050336000806101000a81548173ffffffffffffffffffffffffffffffffffffffff021916908373ffffffffffffffffffffffffffffffffffffffff16021790555033600160006101000a81548173ffffffffffffffffffffffffffffffffffffffff021916908373ffffffffffffffffffffffffffffffffffffffff16021790555080600290805190602001906100ca9291906100e1565b506000600381905550600060048190555050610186565b828054600181600116156101000203166002900490600052602060002090601f016020900481019282601f1061012257805160ff1916838001178555610150565b82800160010185558215610150579182015b8281111561014f578251825591602001919060010190610134565b5b50905061015d9190610161565b5090565b61018391905b8082111561017f576000816000905550600101610167565b5090565b90565b610936806101956000396000f300608060405260043610610083576000357c0100000000000000000000000000000000000000000000000000000000900463ffffffff168063227c1f181461008857806342cbb15c146100b357806346e0d030146100de5780635b678216146101095780638da5cb5b14610136578063a41368621461018d578063cfae3217146101f6575b600080fd5b34801561009457600080fd5b5061009d610286565b6040518082815260200191505060405180910390f35b3480156100bf57600080fd5b506100c8610290565b6040518082815260200191505060405180910390f35b3480156100ea57600080fd5b506100f3610298565b6040518082815260200191505060405180910390f35b34801561011557600080fd5b50610134600480360381019080803590602001909291905050506102a2565b005b34801561014257600080fd5b5061014b6102c6565b604051808273ffffffffffffffffffffffffffffffffffffffff1673ffffffffffffffffffffffffffffffffffffffff16815260200191505060405180910390f35b34801561019957600080fd5b506101f4600480360381019080803590602001908201803590602001908080601f01602080910402602001604051908101604052809392919081815260200183838082843782019150505050505091929192905050506102eb565b005b34801561020257600080fd5b5061020b61046f565b6040518080602001828103825283818151815260200191508051906020019080838360005b8381101561024b578082015181840152602081019050610230565b50505050905090810190601f1680156102785780820380516001836020036101000a031916815260200191505b509250505060405180910390f35b6000600454905090565b600043905090565b6000600354905090565b80600360008282540192505081905550600160046000828254019250508190555050565b6000809054906101000a900473ffffffffffffffffffffffffffffffffffffffff1681565b6000809054906101000a900473ffffffffffffffffffffffffffffffffffffffff1673ffffffffffffffffffffffffffffffffffffffff163373ffffffffffffffffffffffffffffffffffffffff1614151561034657600080fd5b61045660028054600181600116156101000203166002900480601f0160208091040260200160405190810160405280929190818152602001828054600181600116156101000203166002900480156103df5780601f106103b4576101008083540402835291602001916103df565b820191906000526020600020905b8154815290600101906020018083116103c257829003601f168201915b50505050506040805190810160405280600181526020017f2000000000000000000000000000000000000000000000000000000000000000815250836040805190810160405280600181526020017f2000000000000000000000000000000000000000000000000000000000000000815250610511565b6002908051906020019061046b929190610865565b5050565b606060028054600181600116156101000203166002900480601f0160208091040260200160405190810160405280929190818152602001828054600181600116156101000203166002900480156105075780601f106104dc57610100808354040283529160200191610507565b820191906000526020600020905b8154815290600101906020018083116104ea57829003601f168201915b5050505050905090565b60608060608060608060606000808c97508b96508a95508994508451865188518a510101016040519080825280601f01601f1916602001820160405280156105685781602001602082028038833980820191505090505b50935083925060009150600090505b875181101561062a57878181518110151561058e57fe5b9060200101517f010000000000000000000000000000000000000000000000000000000000000090047f01000000000000000000000000000000000000000000000000000000000000000283838060010194508151811015156105ed57fe5b9060200101907effffffffffffffffffffffffffffffffffffffffffffffffffffffffffffff1916908160001a9053508080600101915050610577565b600090505b86518110156106e257868181518110151561064657fe5b9060200101517f010000000000000000000000000000000000000000000000000000000000000090047f01000000000000000000000000000000000000000000000000000000000000000283838060010194508151811015156106a557fe5b9060200101907effffffffffffffffffffffffffffffffffffffffffffffffffffffffffffff1916908160001a905350808060010191505061062f565b600090505b855181101561079a5785818151811015156106fe57fe5b9060200101517f010000000000000000000000000000000000000000000000000000000000000090047f010000000000000000000000000000000000000000000000000000000000000002838380600101945081518110151561075d57fe5b9060200101907effffffffffffffffffffffffffffffffffffffffffffffffffffffffffffff1916908160001a90535080806001019150506106e7565b600090505b84518110156108525784818151811015156107b657fe5b9060200101517f010000000000000000000000000000000000000000000000000000000000000090047f010000000000000000000000000000000000000000000000000000000000000002838380600101945081518110151561081557fe5b9060200101907effffffffffffffffffffffffffffffffffffffffffffffffffffffffffffff1916908160001a905350808060010191505061079f565b8298505050505050505050949350505050565b828054600181600116156101000203166002900490600052602060002090601f016020900481019282601f106108a657805160ff19168380011785556108d4565b828001600101855582156108d4579182015b828111156108d35782518255916020019190600101906108b8565b5b5090506108e191906108e5565b5090565b61090791905b808211156109035760008160009055506001016108eb565b5090565b905600a165627a7a72305820d9dc3911d2f23fe967e9659bbc6786f282a7f39ffc44f1e9a38e28ed5f60d76a0029",
  "source": "pragma solidity ^0.4.24;\nimport \"../node_modules/openzeppelin-solidity/contracts/ownership/Ownable.sol\";\n\ncontract farmInformation is Ownable\n{\n\n    address creator;     // At first, an empty \"address\"-type variable of the name \"creator\". Will be set in the constructor.\n\n    string greetingString ;     // At first, an empty \"string\"-type variable of the name \"greeting\". Will be set in constructor and can be changed.\n\n    uint totalUserRating;\n\n    uint userRatingCount;\n\n    constructor(string _greeting) public   // The constructor. It accepts a string input and saves it to the contract's \"greeting\" variable.\n\n    {\n\n        creator = msg.sender;\n\n        greetingString = _greeting;\n\n        totalUserRating = 0;\n\n        userRatingCount = 0;\n\n    }\n\n\n\n    function greet() public returns (string)\n\n    {\n\n        return greetingString;\n\n    }\n\n\n\n    function getBlockNumber() public returns (uint) // this doesn't have anything to do with the act of greeting\n\n    {                                                   // just demonstrating return of some global variable - can be used to track products as QR code.\n\n        return block.number;\n\n    }\n\n\n\n    function getRatingCount() public returns (uint)\n\n    {                                                   \n\n        return userRatingCount;\n\n    }\n\n    function getTotalRating() public returns (uint)\n\n    {                                                   \n\n        return totalUserRating;\n\n    }\n\n    function setTotalRating(uint rating) public\n\n    {                                                   \n\n        totalUserRating += rating;\n\n        userRatingCount += 1;\n\n    }\n\n    function setGreeting(string _newgreeting) public onlyOwner\n\n    {\n\n        greetingString = strConcat(greetingString,' ', _newgreeting, ' ');\n\n    }\n\n    function strConcat(string _a, string _b, string _c, string _d) internal returns (string){\n        bytes memory _ba = bytes(_a);\n        bytes memory _bb = bytes(_b);\n        bytes memory _bc = bytes(_c);\n        bytes memory _bd = bytes(_d);\n        string memory abcde = new string(_ba.length + _bb.length + _bc.length + _bd.length);\n        bytes memory babcde = bytes(abcde);\n        uint k = 0;\n        for (uint i = 0; i < _ba.length; i++) babcde[k++] = _ba[i];\n        for (i = 0; i < _bb.length; i++) babcde[k++] = _bb[i];\n        for (i = 0; i < _bc.length; i++) babcde[k++] = _bc[i];\n        for (i = 0; i < _bd.length; i++) babcde[k++] = _bd[i];\n    return string(babcde);\n    }\n}",
  "sourcePath": "/Users/lucaspereiradacunha/Documents/farm_to_table/contracts/farmInformation.sol",
  "compiler": {
    "name": "solc",
    "version": "0.4.24+commit.e67f0147.Emscripten.clang"
  },
  "schemaVersion": "2.0.1",
  "updatedAt": "2018-07-15T20:49:37.969Z"
}