{
  "contractName": "farmInformation",
  "abi": [
    {
      "constant": true,
      "inputs": [],
      "name": "owner",
      "outputs": [
        {
          "name": "",
          "type": "address"
        }
      ],
      "payable": false,
      "stateMutability": "view",
      "type": "function"
    },
    {
      "inputs": [
        {
          "name": "_greeting",
          "type": "string"
        }
      ],
      "payable": false,
      "stateMutability": "nonpayable",
      "type": "constructor"
    },
    {
      "constant": true,
      "inputs": [],
      "name": "greet",
      "outputs": [
        {
          "name": "",
          "type": "string"
        }
      ],
      "payable": false,
      "stateMutability": "view",
      "type": "function"
    },
    {
      "constant": true,
      "inputs": [],
      "name": "getBlockNumber",
      "outputs": [
        {
          "name": "",
          "type": "uint256"
        }
      ],
      "payable": false,
      "stateMutability": "view",
      "type": "function"
    },
    {
      "constant": false,
      "inputs": [
        {
          "name": "_newgreeting",
          "type": "string"
        }
      ],
      "name": "setGreeting",
      "outputs": [],
      "payable": false,
      "stateMutability": "nonpayable",
      "type": "function"
    }
  ],
  "bytecode": "0x608060405234801561001057600080fd5b506040516109df3803806109df83398101806040528101908080518201929190505050336000806101000a81548173ffffffffffffffffffffffffffffffffffffffff021916908373ffffffffffffffffffffffffffffffffffffffff16021790555033600160006101000a81548173ffffffffffffffffffffffffffffffffffffffff021916908373ffffffffffffffffffffffffffffffffffffffff16021790555080600290805190602001906100ca9291906100d1565b5050610176565b828054600181600116156101000203166002900490600052602060002090601f016020900481019282601f1061011257805160ff1916838001178555610140565b82800160010185558215610140579182015b8281111561013f578251825591602001919060010190610124565b5b50905061014d9190610151565b5090565b61017391905b8082111561016f576000816000905550600101610157565b5090565b90565b61085a806101856000396000f300608060405260043610610062576000357c0100000000000000000000000000000000000000000000000000000000900463ffffffff16806342cbb15c146100675780638da5cb5b14610092578063a4136862146100e9578063cfae321714610152575b600080fd5b34801561007357600080fd5b5061007c6101e2565b6040518082815260200191505060405180910390f35b34801561009e57600080fd5b506100a76101ea565b604051808273ffffffffffffffffffffffffffffffffffffffff1673ffffffffffffffffffffffffffffffffffffffff16815260200191505060405180910390f35b3480156100f557600080fd5b50610150600480360381019080803590602001908201803590602001908080601f016020809104026020016040519081016040528093929190818152602001838380828437820191505050505050919291929050505061020f565b005b34801561015e57600080fd5b50610167610393565b6040518080602001828103825283818151815260200191508051906020019080838360005b838110156101a757808201518184015260208101905061018c565b50505050905090810190601f1680156101d45780820380516001836020036101000a031916815260200191505b509250505060405180910390f35b600043905090565b6000809054906101000a900473ffffffffffffffffffffffffffffffffffffffff1681565b6000809054906101000a900473ffffffffffffffffffffffffffffffffffffffff1673ffffffffffffffffffffffffffffffffffffffff163373ffffffffffffffffffffffffffffffffffffffff1614151561026a57600080fd5b61037a60028054600181600116156101000203166002900480601f0160208091040260200160405190810160405280929190818152602001828054600181600116156101000203166002900480156103035780601f106102d857610100808354040283529160200191610303565b820191906000526020600020905b8154815290600101906020018083116102e657829003601f168201915b50505050506040805190810160405280600181526020017f2000000000000000000000000000000000000000000000000000000000000000815250836040805190810160405280600181526020017f2000000000000000000000000000000000000000000000000000000000000000815250610435565b6002908051906020019061038f929190610789565b5050565b606060028054600181600116156101000203166002900480601f01602080910402602001604051908101604052809291908181526020018280546001816001161561010002031660029004801561042b5780601f106104005761010080835404028352916020019161042b565b820191906000526020600020905b81548152906001019060200180831161040e57829003601f168201915b5050505050905090565b60608060608060608060606000808c97508b96508a95508994508451865188518a510101016040519080825280601f01601f19166020018201604052801561048c5781602001602082028038833980820191505090505b50935083925060009150600090505b875181101561054e5787818151811015156104b257fe5b9060200101517f010000000000000000000000000000000000000000000000000000000000000090047f010000000000000000000000000000000000000000000000000000000000000002838380600101945081518110151561051157fe5b9060200101907effffffffffffffffffffffffffffffffffffffffffffffffffffffffffffff1916908160001a905350808060010191505061049b565b600090505b865181101561060657868181518110151561056a57fe5b9060200101517f010000000000000000000000000000000000000000000000000000000000000090047f01000000000000000000000000000000000000000000000000000000000000000283838060010194508151811015156105c957fe5b9060200101907effffffffffffffffffffffffffffffffffffffffffffffffffffffffffffff1916908160001a9053508080600101915050610553565b600090505b85518110156106be57858181518110151561062257fe5b9060200101517f010000000000000000000000000000000000000000000000000000000000000090047f010000000000000000000000000000000000000000000000000000000000000002838380600101945081518110151561068157fe5b9060200101907effffffffffffffffffffffffffffffffffffffffffffffffffffffffffffff1916908160001a905350808060010191505061060b565b600090505b84518110156107765784818151811015156106da57fe5b9060200101517f010000000000000000000000000000000000000000000000000000000000000090047f010000000000000000000000000000000000000000000000000000000000000002838380600101945081518110151561073957fe5b9060200101907effffffffffffffffffffffffffffffffffffffffffffffffffffffffffffff1916908160001a90535080806001019150506106c3565b8298505050505050505050949350505050565b828054600181600116156101000203166002900490600052602060002090601f016020900481019282601f106107ca57805160ff19168380011785556107f8565b828001600101855582156107f8579182015b828111156107f75782518255916020019190600101906107dc565b5b5090506108059190610809565b5090565b61082b91905b8082111561082757600081600090555060010161080f565b5090565b905600a165627a7a7230582024307b67aab3b9613ac4785bc0dff821a8d272c04586611eae79b3d73b754df50029",
  "source": "pragma solidity ^0.4.24;\nimport \"../node_modules/openzeppelin-solidity/contracts/ownership/Ownable.sol\";\n\ncontract farmInformation is Ownable         // The contract definition. A constructor of the same name will be automatically called on contract creation. \n{\n    address creator;     // At first, an empty \"address\"-type variable of the name \"creator\". Will be set in the constructor.\n    string greetingString ;     // At first, an empty \"string\"-type variable of the name \"greeting\". Will be set in constructor and can be changed.\n\n    constructor(string _greeting) public   // The constructor. It accepts a string input and saves it to the contract's \"greeting\" variable.\n    {\n        creator = msg.sender;\n        greetingString = _greeting;\n    }\n\n    function greet() constant returns (string)          \n    {\n        return greetingString;\n    }\n    \n    function getBlockNumber() constant returns (uint) // this doesn't have anything to do with the act of greeting\n    {\t\t\t\t\t\t\t\t\t\t\t\t\t// just demonstrating return of some global variable - can be used to track products as QR code.\n        return block.number;\n    }\n    \n    function setGreeting(string _newgreeting) public onlyOwner\n    {\n        greetingString = strConcat(greetingString,' ', _newgreeting, ' ');\n    }\n    function strConcat(string _a, string _b, string _c, string _d) internal returns (string){\n    bytes memory _ba = bytes(_a);\n    bytes memory _bb = bytes(_b);\n    bytes memory _bc = bytes(_c);\n    bytes memory _bd = bytes(_d);\n    string memory abcde = new string(_ba.length + _bb.length + _bc.length + _bd.length);\n    bytes memory babcde = bytes(abcde);\n    uint k = 0;\n    for (uint i = 0; i < _ba.length; i++) babcde[k++] = _ba[i];\n    for (i = 0; i < _bb.length; i++) babcde[k++] = _bb[i];\n    for (i = 0; i < _bc.length; i++) babcde[k++] = _bc[i];\n    for (i = 0; i < _bd.length; i++) babcde[k++] = _bd[i];\n    return string(babcde);\n}\n}",
  "sourcePath": "/Users/lucaspereiradacunha/Documents/farm_to_table/contracts/farmInformation.sol",
  "compiler": {
    "name": "solc",
    "version": "0.4.24+commit.e67f0147.Emscripten.clang"
  },
  "schemaVersion": "2.0.1",
  "updatedAt": "2018-07-15T05:59:25.493Z"
}